{
  "address": "0xe7f1725E7734CE288F8367e1Bb143E90bb3F0512",
  "abi": [
    {
      "inputs": [
        {
          "internalType": "address",
          "name": "priceFeedAddress",
          "type": "address"
        }
      ],
      "stateMutability": "nonpayable",
      "type": "constructor"
    },
    {
      "inputs": [],
      "name": "FundMe__NotOwner",
      "type": "error"
    },
    {
      "stateMutability": "payable",
      "type": "fallback"
    },
    {
      "inputs": [],
      "name": "cheapWithDraw",
      "outputs": [],
      "stateMutability": "payable",
      "type": "function"
    },
    {
      "inputs": [],
      "name": "fund",
      "outputs": [],
      "stateMutability": "payable",
      "type": "function"
    },
    {
      "inputs": [
        {
          "internalType": "address",
          "name": "funderAddress",
          "type": "address"
        }
      ],
      "name": "getAddressToAmountFunded",
      "outputs": [
        {
          "internalType": "uint256",
          "name": "",
          "type": "uint256"
        }
      ],
      "stateMutability": "view",
      "type": "function"
    },
    {
      "inputs": [],
      "name": "getOwner",
      "outputs": [
        {
          "internalType": "address",
          "name": "",
          "type": "address"
        }
      ],
      "stateMutability": "view",
      "type": "function"
    },
    {
      "inputs": [],
      "name": "getPriceFeed",
      "outputs": [
        {
          "internalType": "contract AggregatorV3Interface",
          "name": "",
          "type": "address"
        }
      ],
      "stateMutability": "view",
      "type": "function"
    },
    {
      "inputs": [
        {
          "internalType": "uint256",
          "name": "index",
          "type": "uint256"
        }
      ],
      "name": "getfunder",
      "outputs": [
        {
          "internalType": "address",
          "name": "",
          "type": "address"
        }
      ],
      "stateMutability": "view",
      "type": "function"
    },
    {
      "inputs": [],
      "name": "i_minimumUSd",
      "outputs": [
        {
          "internalType": "uint256",
          "name": "",
          "type": "uint256"
        }
      ],
      "stateMutability": "view",
      "type": "function"
    },
    {
      "inputs": [],
      "name": "withDraw",
      "outputs": [],
      "stateMutability": "nonpayable",
      "type": "function"
    },
    {
      "stateMutability": "payable",
      "type": "receive"
    }
  ],
  "transactionHash": "0x7e9dc3bad4035a8562fbbd303fe5f7de08d3db98ca31d5305372910ecf0000a8",
  "args": [
    "0x5FbDB2315678afecb367f032d93F642f64180aa3"
  ],
  "numDeployments": 1,
  "solcInputHash": "925ac38cefca8f36225b8f627fba8a2c",
  "bytecode": "0x60c06040526802b5e3af16b18800006080908152503480156200002157600080fd5b50604051620012133803806200121383398181016040528101906200004791906200012d565b3373ffffffffffffffffffffffffffffffffffffffff1660a08173ffffffffffffffffffffffffffffffffffffffff168152505080600260006101000a81548173ffffffffffffffffffffffffffffffffffffffff021916908373ffffffffffffffffffffffffffffffffffffffff160217905550506200015f565b600080fd5b600073ffffffffffffffffffffffffffffffffffffffff82169050919050565b6000620000f582620000c8565b9050919050565b6200010781620000e8565b81146200011357600080fd5b50565b6000815190506200012781620000fc565b92915050565b600060208284031215620001465762000145620000c3565b5b6000620001568482850162000116565b91505092915050565b60805160a0516110796200019a60003960008181610349015281816105d201526106220152600081816101c001526108c601526110796000f3fe60806040526004361061007f5760003560e01c80639e87a5cd1161004e5780639e87a5cd14610154578063b60d42881461017f578063cf43405f14610189578063ede113b0146101935761008e565b80630343fb25146100985780630fdb1c10146100d55780633726102d146100ec578063893d20e8146101295761008e565b3661008e5761008c6101be565b005b6100966101be565b005b3480156100a457600080fd5b506100bf60048036038101906100ba9190610abf565b6102fe565b6040516100cc9190610b05565b60405180910390f35b3480156100e157600080fd5b506100ea610347565b005b3480156100f857600080fd5b50610113600480360381019061010e9190610b4c565b610587565b6040516101209190610b88565b60405180910390f35b34801561013557600080fd5b5061013e6105ce565b60405161014b9190610b88565b60405180910390f35b34801561016057600080fd5b506101696105f6565b6040516101769190610c02565b60405180910390f35b6101876101be565b005b610191610620565b005b34801561019f57600080fd5b506101a86108c4565b6040516101b59190610b05565b60405180910390f35b7f0000000000000000000000000000000000000000000000000000000000000000610214600260009054906101000a900473ffffffffffffffffffffffffffffffffffffffff16346108e890919063ffffffff16565b1015610255576040517f08c379a000000000000000000000000000000000000000000000000000000000815260040161024c90610c7a565b60405180910390fd5b6000339080600181540180825580915050600190039060005260206000200160009091909190916101000a81548173ffffffffffffffffffffffffffffffffffffffff021916908373ffffffffffffffffffffffffffffffffffffffff16021790555034600160003373ffffffffffffffffffffffffffffffffffffffff1673ffffffffffffffffffffffffffffffffffffffff16815260200190815260200160002081905550565b6000600160008373ffffffffffffffffffffffffffffffffffffffff1673ffffffffffffffffffffffffffffffffffffffff168152602001908152602001600020549050919050565b7f000000000000000000000000000000000000000000000000000000000000000073ffffffffffffffffffffffffffffffffffffffff163373ffffffffffffffffffffffffffffffffffffffff16146103cc576040517f579610db00000000000000000000000000000000000000000000000000000000815260040160405180910390fd5b60005b6000805490508110156104775760008082815481106103f1576103f0610c9a565b5b9060005260206000200160009054906101000a900473ffffffffffffffffffffffffffffffffffffffff1690506000600160008373ffffffffffffffffffffffffffffffffffffffff1673ffffffffffffffffffffffffffffffffffffffff1681526020019081526020016000208190555050808061046f90610cf8565b9150506103cf565b50600067ffffffffffffffff81111561049357610492610d40565b5b6040519080825280602002602001820160405280156104c15781602001602082028036833780820191505090505b50600090805190602001906104d79291906109b5565b5060003373ffffffffffffffffffffffffffffffffffffffff16476040516104fe90610da0565b60006040518083038185875af1925050503d806000811461053b576040519150601f19603f3d011682016040523d82523d6000602084013e610540565b606091505b5050905080610584576040517f08c379a000000000000000000000000000000000000000000000000000000000815260040161057b90610e01565b60405180910390fd5b50565b600080828154811061059c5761059b610c9a565b5b9060005260206000200160009054906101000a900473ffffffffffffffffffffffffffffffffffffffff169050919050565b60007f0000000000000000000000000000000000000000000000000000000000000000905090565b6000600260009054906101000a900473ffffffffffffffffffffffffffffffffffffffff16905090565b7f000000000000000000000000000000000000000000000000000000000000000073ffffffffffffffffffffffffffffffffffffffff163373ffffffffffffffffffffffffffffffffffffffff16146106a5576040517f579610db00000000000000000000000000000000000000000000000000000000815260040160405180910390fd5b60008080548060200260200160405190810160405280929190818152602001828054801561072857602002820191906000526020600020905b8160009054906101000a900473ffffffffffffffffffffffffffffffffffffffff1673ffffffffffffffffffffffffffffffffffffffff16815260200190600101908083116106de575b5050505050905060005b81518110156107b35760008282815181106107505761074f610c9a565b5b602002602001015190506000600160008373ffffffffffffffffffffffffffffffffffffffff1673ffffffffffffffffffffffffffffffffffffffff168152602001908152602001600020819055505080806107ab90610cf8565b915050610732565b50600067ffffffffffffffff8111156107cf576107ce610d40565b5b6040519080825280602002602001820160405280156107fd5781602001602082028036833780820191505090505b50600090805190602001906108139291906109b5565b5060003373ffffffffffffffffffffffffffffffffffffffff164760405161083a90610da0565b60006040518083038185875af1925050503d8060008114610877576040519150601f19603f3d011682016040523d82523d6000602084013e61087c565b606091505b50509050806108c0576040517f08c379a00000000000000000000000000000000000000000000000000000000081526004016108b790610e01565b60405180910390fd5b5050565b7f000000000000000000000000000000000000000000000000000000000000000081565b6000806108f483610924565b90506000670de0b6b3a7640000858361090d9190610e21565b6109179190610e92565b9050809250505092915050565b6000808273ffffffffffffffffffffffffffffffffffffffff1663feaf968c6040518163ffffffff1660e01b815260040160a060405180830381865afa158015610972573d6000803e3d6000fd5b505050506040513d601f19601f820116820180604052508101906109969190610f50565b5050509150506402540be400816109ad9190610fcb565b915050919050565b828054828255906000526020600020908101928215610a2e579160200282015b82811115610a2d5782518260006101000a81548173ffffffffffffffffffffffffffffffffffffffff021916908373ffffffffffffffffffffffffffffffffffffffff160217905550916020019190600101906109d5565b5b509050610a3b9190610a3f565b5090565b5b80821115610a58576000816000905550600101610a40565b5090565b600080fd5b600073ffffffffffffffffffffffffffffffffffffffff82169050919050565b6000610a8c82610a61565b9050919050565b610a9c81610a81565b8114610aa757600080fd5b50565b600081359050610ab981610a93565b92915050565b600060208284031215610ad557610ad4610a5c565b5b6000610ae384828501610aaa565b91505092915050565b6000819050919050565b610aff81610aec565b82525050565b6000602082019050610b1a6000830184610af6565b92915050565b610b2981610aec565b8114610b3457600080fd5b50565b600081359050610b4681610b20565b92915050565b600060208284031215610b6257610b61610a5c565b5b6000610b7084828501610b37565b91505092915050565b610b8281610a81565b82525050565b6000602082019050610b9d6000830184610b79565b92915050565b6000819050919050565b6000610bc8610bc3610bbe84610a61565b610ba3565b610a61565b9050919050565b6000610bda82610bad565b9050919050565b6000610bec82610bcf565b9050919050565b610bfc81610be1565b82525050565b6000602082019050610c176000830184610bf3565b92915050565b600082825260208201905092915050565b7f4469646e27742073656e6420656e6f756768202e000000000000000000000000600082015250565b6000610c64601483610c1d565b9150610c6f82610c2e565b602082019050919050565b60006020820190508181036000830152610c9381610c57565b9050919050565b7f4e487b7100000000000000000000000000000000000000000000000000000000600052603260045260246000fd5b7f4e487b7100000000000000000000000000000000000000000000000000000000600052601160045260246000fd5b6000610d0382610aec565b91507fffffffffffffffffffffffffffffffffffffffffffffffffffffffffffffffff8203610d3557610d34610cc9565b5b600182019050919050565b7f4e487b7100000000000000000000000000000000000000000000000000000000600052604160045260246000fd5b600081905092915050565b50565b6000610d8a600083610d6f565b9150610d9582610d7a565b600082019050919050565b6000610dab82610d7d565b9150819050919050565b7f5769746844726177206973206661696c6564202e000000000000000000000000600082015250565b6000610deb601483610c1d565b9150610df682610db5565b602082019050919050565b60006020820190508181036000830152610e1a81610dde565b9050919050565b6000610e2c82610aec565b9150610e3783610aec565b9250828202610e4581610aec565b91508282048414831517610e5c57610e5b610cc9565b5b5092915050565b7f4e487b7100000000000000000000000000000000000000000000000000000000600052601260045260246000fd5b6000610e9d82610aec565b9150610ea883610aec565b925082610eb857610eb7610e63565b5b828204905092915050565b600069ffffffffffffffffffff82169050919050565b610ee281610ec3565b8114610eed57600080fd5b50565b600081519050610eff81610ed9565b92915050565b6000819050919050565b610f1881610f05565b8114610f2357600080fd5b50565b600081519050610f3581610f0f565b92915050565b600081519050610f4a81610b20565b92915050565b600080600080600060a08688031215610f6c57610f6b610a5c565b5b6000610f7a88828901610ef0565b9550506020610f8b88828901610f26565b9450506040610f9c88828901610f3b565b9350506060610fad88828901610f3b565b9250506080610fbe88828901610ef0565b9150509295509295909350565b6000610fd682610f05565b9150610fe183610f05565b9250828202610fef81610f05565b91507f8000000000000000000000000000000000000000000000000000000000000000841460008412161561102757611026610cc9565b5b828205841483151761103c5761103b610cc9565b5b509291505056fea2646970667358221220c2ff7e90a09860399aa62d59290ccf7944e95044b5226a6db90f3dd537ace2e864736f6c63430008130033",
  "devdoc": {
    "kind": "dev",
    "methods": {},
    "version": 1
  },
  "userdoc": {
    "kind": "user",
    "methods": {},
    "version": 1
  },
  "storageLayout": {
    "storage": [
      {
        "astId": 61,
        "contract": "contracts/FundMe.sol:FundMe",
        "label": "s_funders",
        "offset": 0,
        "slot": "0",
        "type": "t_array(t_address)dyn_storage"
      },
      {
        "astId": 65,
        "contract": "contracts/FundMe.sol:FundMe",
        "label": "s_addressToAmountFunded",
        "offset": 0,
        "slot": "1",
        "type": "t_mapping(t_address,t_uint256)"
      },
      {
        "astId": 68,
        "contract": "contracts/FundMe.sol:FundMe",
        "label": "s_priceFeed",
        "offset": 0,
        "slot": "2",
        "type": "t_contract(AggregatorV3Interface)45"
      }
    ],
    "types": {
      "t_address": {
        "encoding": "inplace",
        "label": "address",
        "numberOfBytes": "20"
      },
      "t_array(t_address)dyn_storage": {
        "base": "t_address",
        "encoding": "dynamic_array",
        "label": "address[]",
        "numberOfBytes": "32"
      },
      "t_contract(AggregatorV3Interface)45": {
        "encoding": "inplace",
        "label": "contract AggregatorV3Interface",
        "numberOfBytes": "20"
      },
      "t_mapping(t_address,t_uint256)": {
        "encoding": "mapping",
        "key": "t_address",
        "label": "mapping(address => uint256)",
        "numberOfBytes": "32",
        "value": "t_uint256"
      },
      "t_uint256": {
        "encoding": "inplace",
        "label": "uint256",
        "numberOfBytes": "32"
      }
    }
  }
}